:020000040800F2
:1000000000500020A1380008753700087737000835
:1000100000000000000000000000000000000000E0
:100020000000000000000000000000007937000818
:1000300000000000000000007B3700087D3700084A
:10004000F1380008F138000885370008F138000859
:100050008737000889370008F13800089937000809
:10006000F1380008AD370008BD370008D537000863
:10007000ED370008F1380008FD370008F1380008B6
:10008000F1380008F1380008F138000800000000DD
:10009000F1380008F1380008F1380008F13800089C
:1000A000F1380008F1380008F13800081538000868
:1000B000253800083538000800000000F138000835
:1000C00010B5064C2378002B07D1054B002B02D02E
:1000D000044800E000BF0123237010BD2000002071
:1000E000000000005C390008044B10B5002B03D061
:1000F0000349044800E000BF10BDC04600000000F6
:10010000240000205C39000802B471464908490007
:10011000095C49008E4402BC7047C04603B4714676
:10012000490840004900095E49008E4403BC7047FD
:10013000002243088B4274D303098B425FD3030A26
:100140008B4244D3030B8B4228D3030C8B420DD339
:10015000FF22090212BA030C8B4202D312120902C7
:1001600065D0030B8B4219D300E0090AC30B8B4205
:1001700001D3CB03C01A5241830B8B4201D38B03B3
:10018000C01A5241430B8B4201D34B03C01A524158
:10019000030B8B4201D30B03C01A5241C30A8B429B
:1001A00001D3CB02C01A5241830A8B4201D38B0286
:1001B000C01A5241430A8B4201D34B02C01A52412A
:1001C000030A8B4201D30B02C01A5241CDD2C3099C
:1001D0008B4201D3CB01C01A524183098B4201D318
:1001E0008B01C01A524143098B4201D34B01C01A03
:1001F000524103098B4201D30B01C01A5241C3087B
:100200008B4201D3CB00C01A524183088B4201D3E9
:100210008B00C01A524143088B4201D34B00C01AD5
:100220005241411A00D20146524110467047FFE741
:1002300001B5002000F006F802BDC0460029F7D045
:1002400076E770477047C046002B11D1002A0FD1C6
:10025000002900D1002802D00021C943081C07B49E
:10026000024802A14018029003BDC046D9FFFFFF1B
:1002700003B4684601B5029800F006F8019B9E465B
:1002800002B00CBC7047C046F0B557464E464546D6
:10029000DE46E0B5040083B00D00924699468B42DD
:1002A0002FD82CD04946504600F0AEF82900060061
:1002B000200000F0A9F8331A9846203B9B4600D551
:1002C00074E053465A4693401F00534642469340BB
:1002D0001E00AF4229D826D05B46A41BBD41002B8F
:1002E00000DA79E0002200230092019301235A46AC
:1002F00093400193012342469340009319E08242C8
:10030000D0D900220023009201930C9B002B01D036
:100310001C605D600098019903B03CBC9046994612
:10032000A246AB46F0BDA342D6D9002200230092DC
:1003300001934346002BE8D0FB0772081A43464658
:100340007B080EE0AB4201D1A2420CD8A41A9D4119
:10035000012024196D410021013E24184D41002E39
:1003600006D0AB42EED9013E24196D41002EF8D1E2
:100370005B460098019900196941002B22DB2B0094
:100380005A46D3402A004446E2401C005B46150012
:10039000002B2CDB26009E40330026004746BE4043
:1003A0003200801A994100900191AEE74246202325
:1003B0009B1A5246DA40414613004A468A401700CB
:1003C0001F4382E7424620239B1A2A0046469A4052
:1003D0002300F3401343D5E74246202300219B1A14
:1003E0000022009101920122DA40019282E7424606
:1003F000202326009B1ADE402F00B4469740664615
:100400003B003343C9E7C04610B5002903D100F0D3
:1004100007F8203002E0081C00F002F810BDC046CA
:100420001C2101231B04984201D3000C10391B0A24
:10043000984201D3000A08391B09984201D30009E8
:10044000043902A2105C40187047C046040302023F
:10045000010101010000000000000000FA210A4B28
:1004600070B5890005001868FFF762FE00F0D8FB40
:1004700004000120002C05D102382200290000F0E0
:1004800083FB200070BDC0461C0000200223084AE8
:1004900010B5116800200B431360FFF7DFFF041E47
:1004A00003D102F093FF200010BD0124FBE7C046FA
:1004B00000200240024A1368013313607047C046AF
:1004C00040000020014B18687047C04640000020E3
:1004D00070B50400FFF7F6FF631C5A1E9341050038
:1004E000E418FFF7EFFF401B8442FAD870BD00000C
:1004F000084B13B5040008491868FFF719FE444378
:100500000194019B002B00D113BD019B013B019382
:10051000F7E7C0461C00002040420F00F7B504007A
:100520000120002C00D1D1E0694B22689A4204D00E
:10053000CE216848490002F048FF6268664B1340CC
:1005400016D0802051004908C005814210D080217A
:1005500009068A420CD080225203934208D080229E
:100560009203934204D09E215A48FF3102F02DFF9E
:100570001823A2689A4304D0CF215648490002F0BC
:1005800024FF2023E2689A4304D0A0215148FF3180
:1005900002F01BFF2369013B012B04D9D0214D48F8
:1005A000490002F012FF661CF37F012B04D9A2213F
:1005B0004848FF3102F009FFA31C0193DB7F012BA8
:1005C00004D9D1214348490002F0FFFE434BA26AFF
:1005D0001A4204D0A4213F48FF3102F0F6FE636ABC
:1005E0004022190018009143803290430FD080229E
:1005F000520091420BD08032934208D0C13BFF3B66
:10060000012B04D9D2213348490002F0DEFE230039
:100610002C331B78012B04D9A6212E48FF3102F080
:10062000D4FE04226369043B934304D0D3212948B8
:10063000490002F0CAFE2A4B226B1A4204D0A821BC
:100640002448FF3102F0C1FEA369012B04D9D42153
:100650002048490002F0B9FE636B012B04D9AA219E
:100660001C48FF3102F0B1FEE369012B04D9D5210A
:100670001848490002F0A9FEA36B072B04D9AC214E
:100680001448FF3102F0A1FEE36B012B04D9D621FF
:100690001048490002F099FE636D002B06D122003C
:1006A0005032A3652000137002F0A6FE636DDB06D6
:1006B00004D4042322689168194013D01023626D7A
:1006C000012013436365002350342370FEBDC046F0
:1006D0000024014074390008FFFFF3FFFFF3FFFF20
:1006E000FFEFFFFF636D6A48184002230343636511
:1006F000032390681840674B012802D1176807420E
:100700001AD180256768ED0578004008A84204D01A
:1007100080200006874200D09EE01069800080089B
:1007200010611069074317611827D068A568B8439E
:10073000D060D0682843D0601A68574802401A60D9
:10074000626B1868520602431A60802322685B05B8
:100750009068184202D1906803439360D3684F4871
:1007600003402069D360D768E368022800D10421E0
:10077000256BF07F2B43A5693B43AE03E56933430B
:10078000EE0333434603334326002C363678760097
:1007900033430B43C221D360636AFF318B4204D0E1
:1007A000A56AD1682B430B43D360A31CDB7F012BCD
:1007B00006D100285CD18023D1685B020B43D36053
:1007C000E36B012B5CD1216C1C2905D8344ACA404B
:1007D0009343DBB2002B04D093213248890002F00E
:1007E000F4FD636C60221900914309D0802907D081
:1007F00080225200934203D02B492A4802F0E5FDA3
:100800002A4BA26C1A4203D02949264802F0DDFD8A
:10081000226828491369606C0B401361236C1169CD
:100820000343A06C03430B431361012311690B4382
:1008300013610721236800205A698A435A615A6963
:10084000A16B0A435A610322A065636D93431A00AA
:1008500001231343636539E71069174D8000800851
:100860001061186828401860186807431F605BE72C
:100870002021606D01436165A16D0B43A3659FE776
:10088000012113690B42D4D013698B43D0E7C046D2
:10089000FDFEFFFF08270140FFFFFFFD1902FEFFDD
:1008A00011111111743900084D020000FFFDFFFF06
:1008B0004E02000003FCFFFFFFFFC3FF70477047BD
:1008C00070470000444B026870B504009A4203D0A0
:1008D0004249434802F079FD651CEB7F012B03D9A7
:1008E00040493F4802F071FD04226369043B934391
:1008F00003D03D493A4802F068FD04222368196894
:10090000114202D05968114206D1082219681142D9
:100910002BD05968114228D0626DD20604D48022AF
:10092000616D92000A436265C022D96812011142CA
:1009300012D1EA7F002A0FD11A6812070CD59A68E3
:1009400052073FD40C215A688A435A60636D274A84
:100950001A400123134363652000FFF7AFFFA3692B
:10096000012B02D00C2223681A60802523681A68A4
:100970002A420CD05B682B4209D08023626D5B0257
:10098000134363652000FFF79AFF23681D60102260
:1009900023681968114214D05968114211D0226B92
:1009A000002A02D0DA68D20708D50222A16D200001
:1009B0000A43A26510221A60FFF782FF1022236803
:1009C0001A6070BD2023626D134363650123A26D1D
:1009D0001343A365C0E7C04600240140940600000D
:1009E000743900089506000096060000FEFEFFFF21
:1009F0004B4B026870B505000C009A4203D0494980
:100A0000494802F0E2FC2368012B36D0474A934262
:100A100033D0474A934230D0464A93422DD0464A7B
:100A200093422AD0454A934227D0454A934224D044
:100A3000444A934221D0444A93421ED0434A9342AF
:100A40001BD0434A934218D0424A934215D0424A9F
:100A5000934212D0414A93420FD0414A93420CD064
:100A6000404A934209D0404A934206D03F4A9342BB
:100A700003D03F492C4802F0A8FC63683D4A9B180C
:100A8000012B04D9F0212848C90002F09EFC2E0059
:100A9000503633780220012B0BD02A680138936836
:100AA00030705B0706D520236A6D13436B65002306
:100AB000337070BD8020304965682368C0028D4264
:100AC0001BD0956A5903490B29439162034208D010
:100AD00080232A4A1B0411680A200B431360FFF786
:100AE00007FD23689B0305D58023244ADB03116897
:100AF0000B43136000203070DBE7916A5C03640BEA
:100B0000A1439162034204D01C491D480A68024077
:100B10000A609B03EED5194A1A4913680B40E8E7AF
:100B2000002401407E070000743900080200000420
:100B3000040000080800000C100000102000001441
:100B4000400000188000001C00010020000200246A
:100B5000000400280008002C0010003000200034A1
:100B6000004000380080003C0000044800000244BF
:100B70007F07000000F0FFFF011000000827014080
:100B8000FFFF7FFFFFFFBFFF70B504000D000329CB
:100B900003D98721164802F018FCA901002C14DAA9
:100BA0000F23E4B22340083B124A9B089B009B188A
:100BB000032214409440FC3215000A40A540A24094
:100BC000D869A8430243DA6170BD0325A3082C400D
:100BD000AC40FC352E00084A9B009B18C022A64062
:100BE0002940A14092009858B04301439950EBE747
:100BF000AC39000800ED00E000E100E010B5041E93
:100C000003DA9721044802F0E0FB1F231C401E3B3F
:100C1000A340024A136010BDAC39000800E100E0B7
:100C2000094A431E012093420DD8C021074A0848B3
:100C30005360036A09061B021B0A0B430362002070
:100C40000723906013607047FFFFFF0010E000E093
:100C500000ED00E0F8B504000120002C00D19EE07A
:100C600023684F4A934215D04E4A934212D04E4ABF
:100C700093420FD04D4A93420CD04D4A934209D033
:100C80004C4A934206D04C4A934203D096214B489B
:100C900002F09BFB63680A2B06D90C3B032B03D99C
:100CA0009721464802F091FBA36810221900914356
:100CB00007D08022D201934203D098213F4802F00E
:100CC00084FB4023E2689A4303D099213B4802F019
:100CD0007CFB802322699A4303D09A21374802F093
:100CE00074FB6369364A134207D080229200934214
:100CF00003D09B21314802F068FBA369314A1342BB
:100D000007D080221201934203D09C212B4802F08D
:100D10005CFB2023E2699A4303D09D21274802F01F
:100D200054FB294B226A1A4203D09E21234802F029
:100D30004CFB2568254B1421E818FFF7F9F9244BE3
:100D4000800023640223A21D6064D3772E68214BA8
:100D5000A1681E40E36827690B433B4367693B4337
:100D6000A7693B43E7693B43276A3B4333432B6017
:100D70008023DB0199420CD01C2528400D3D854085
:100D800015490B68AB430B6063680D6883402B43C8
:100D90000B6000200123E0630534D377E077F8BDD2
:100DA000080002401C0002403000024044000240A3
:100DB000580002406C00024080000240E739000801
:100DC000FFFEFFFFFFFBFFFFFFCFFFFFF8FFFDBFB1
:100DD000000002400F80FFFFA8000240F7B5150099
:100DE0001F005A1E234B04000E009A4204D9AB2167
:100DF0002148490002F0E9FA631DDA7F0220012A46
:100E00002AD00122DA77A21D9446D27F0021D2B2E5
:100E1000012A2CD16346D8772368E16319681A3018
:100E200091431960216C0191616C084082400199E5
:100E30004A60A2685F602168102A0ED19D60DE6062
:100E4000226B002A0CD00E22186802431A6001237C
:100E500000200A6813430B60FEBD9E60DD60EFE773
:100E600004201A6882431A6018680A22EDE7D977CD
:100E7000F2E7C046FEFF0000E739000870B5841DA8
:100E8000E37F022B04D00423C363033B180070BD2F
:100E90000E210368456C1A688A431A60012219689A
:100EA000914319601C232B4015009D40016C431D8C
:100EB0004D60E2770024826BDC771300A242E5D01C
:100EC00090472300E2E7F8B51C220427466C016C2A
:100ED00032403E0096400D6803681C682E420DD0DB
:100EE0003C420BD01A68920602D41A68BA431A60C0
:100EF000036B4E60002B19D0984717E002273E0085
:100F000096402E4213D03C4211D01A68920606D465
:100F10000A241A68A2431A600122831DDA7700228C
:100F2000431D4E60DA77C36A9342E5D1F8BD0826C7
:100F3000370097403D42F9D03442F7D00E251C6867
:100F4000AC431C6001231C009440821D4C60C363B1
:100F5000D3770022431DDA77436BE5E74B68F7B59B
:100F600004000D00032B12D91A00113A012A0ED9E0
:100F7000854A86491A40521885490A4207D0854A4F
:100F80009B180B4203D0AE21834802F01EFAAB68D7
:100F9000022B03D9AF21804802F017FAA023DB050A
:100FA0009C420BD07D4B9C4208D07D4B9C4205D08F
:100FB0007C4B9C4202D07C4B9C4207D12B689AB25E
:100FC000002A03D0794A134393420DD0784B9C42B8
:100FD00006D12B68774A134202D01343934203D0C1
:100FE000B0216D4802F0F1F900272B681A00FA4091
:100FF00000D1F7BD0122BA4001921A40009200D1FF
:10100000C0E010226B689343022B2CD1A023DB0598
:101010009C4212D0614B9C420FD0614B9C420CD041
:10102000604B9C4209D0604B9C4206D0604B9C4276
:1010300003D0BF21584802F0C8F92B69072B03D908
:10104000C021554802F0C1F907220F203A40920012
:101050009040FB089B00E318196A8143286990407F
:1010600002000A431A6210226B687E009343013B20
:10107000012B19D8EB68032B03D9CE21464802F087
:10108000A4F90322B240A368012193431A00EB683C
:10109000B3401343A3606268019B9A436B681B09CA
:1010A0000B40BB401343636003239C46B34061463F
:1010B0006A68DB431140B140206818400143216059
:1010C000E1681940AB68B3400B43E360D30059D5E6
:1010D000012039490F264B6B03436046384080009E
:1010E00086404B63354BB9088900C9188B68B343F8
:1010F000A0260193F6050023B44214D0274E0133F5
:10110000B44210D0264E0133B4420CD0254E634673
:10111000B44208D0244E0133B44204D0284BE31823
:101120005E1EB34105338340019803438B6025491C
:10113000009B0E68D84333439C46D30302D433004C
:1011400003409C4663460B604E68009B33439C46BD
:10115000930302D4330003409C4663464B608E6881
:10116000009B33439C46D30202D4330003409C4689
:1011700063468B60CE68009B3343920201D43300F8
:101180000340CB60013730E7FFFFDFFF0000EFEFE8
:10119000FFFFFEFF0000DFEF1F3A000800040050D1
:1011A00000080050000C005000100050FFFF00002D
:1011B000001C005003060000001002400000014027
:1011C00000E4FFAF00040140A02370B5DB0504007C
:1011D0000D00160098420BD0154B984208D0154BC5
:1011E000984205D0144B984202D0144B98420AD131
:1011F000002D12D0012E16D99E211148FF3102F088
:10120000E4F8A56170BD0F4B984206D10E4B194210
:1012100003D01A000A439A42ECD0CE210848490074
:1012200002F0D3F8E6E7002EEBD1A562EAE7C0466C
:101230000004005000080050000C00500010005046
:101240001F3A0008001C0050030600007047000011
:10125000044B10B55A69104202D05861FFF7F6FFEF
:1012600010BDC0460004014070B504000120002CF0
:1012700000D18AE023684A4A93420AD0494A9342FD
:1012800007D0494A934204D0EF214848490002F070
:101290009CF8474BA2689A4204D9E0214348FF31A9
:1012A00002F093F8E368013B012B04D9F0213F4899
:1012B000490002F08AF83F4E2369334204D0E2210C
:1012C0003A48FF3102F081F86369FF2B04D9F1211C
:1012D0003648490002F079F8A369072B04D9E421C4
:1012E0003248FF3102F071F8334BE2691A4204D000
:1012F000F2212E48490002F068F8304B226A1A4267
:1013000004D0E6212948FF3102F05FF8250041357D
:101310002B78DBB2002B05D1220040321370200065
:1013200002F0BAF8242301212B702368A0681A6800
:101330008A431A606168224A0A401A619A68E16821
:1013400032409A60012921D18022120202439A6020
:1013500059681C4A00200A435A60DA6861691640DD
:101360002269DE600A43A16909020A43DA60216A40
:10137000E2690A431A60012219680A431A602023AD
:1013800060642B7020634234207070BD842212028E
:1013900002439A600229DBD1802212015A60D7E70A
:1013A000005400400058004000780040583A0008BF
:1013B000FF030000FF7FFFFFFFFFF7FFFFFFFDFFC1
:1013C000FFFFFFF000800002F8B51D4A0368060029
:1013D0000C00934209D01B4A934206D01A4A93420A
:1013E00003D06421194801F0F0FF194D2C4203D0BD
:1013F0006521164801F0E9FF41239C46B444634649
:101400001A780220D2B2202A19D1370040373B780F
:10141000012B14D0242361460B7001213368186816
:1014200088431860186805401D60186804431C60F4
:10143000186801431960002063461A703870F8BDBF
:10144000005400400058004000780040903A0008E6
:10145000FFEFFFFFF8B51B4A036805000C0093423D
:1014600009D0194A934206D0184A934203D09221D8
:10147000174801F0AAFF0F2C03D99321144801F05B
:10148000A4FF2E00413632780220D2B2202A17D192
:10149000290040310B78012B12D0242333702B68A4
:1014A00001381D680B4F85431D601D6824023D40B7
:1014B0002C431C601C6820431860002032700870A8
:1014C000F8BDC0460054004000580040007800407D
:1014D000903A0008FFF0FFFF0C22184B10B5D968B6
:1014E0000A40082A26D00C2A06D0042A1AD11B68E2
:1014F000DB0621D4124810BD8A021248120F825C0A
:101500000902D868890F0131C00304D50E48504341
:10151000FEF70EFEEFE71B68DB0601D50B48F6E78A
:101520000748F4E780205B6800021B045B0F01336F
:101530009840E0E70448DEE70448DCE7001002409A
:101540000024F400E13B000800127A0000093D008D
:10155000F0B5050087B0002802D1012007B0F0BD2A
:101560000368002B06D09B0604D1B021C748490070
:1015700001F02BFF0C238027C54C7F02E2681A4044
:10158000E36801921F402B68DB0764D42B689B073C
:1015900000D5C0E02B68DB0643D5019B002B00D0B3
:1015A0002DE123689B0502D5EB69002BD5D02B6A72
:1015B000FF2B04D98021B548890001F006FF6B6A32
:1015C000B44AB5491A400B420BD0802109028A4225
:1015D00007D0C0221202934203D0B049AB4801F0B9
:1015E000F4FE6268AE496B6A0A401A436260616841
:1015F0002A6A0902090A12060A43626080225B0B0A
:10160000013312029A401300E16800200A06A5493E
:10161000120F8A5CD340A44A1360FEF71FFF002814
:101620009CD12B681B0700D55BE12B685B0700D5BD
:1016300084E12B689B0600D5FDE1AB6A022B04D93F
:10164000BA219248890001F0C0FEAB6A002B00D09D
:101650002BE2002082E76B68944E334208D0A02230
:10166000D202934204D06A218848FF3101F0ADFED6
:10167000019B082B03D00C2B08D1002F06D0236828
:101680009B0383D56B68002B80D166E780216B6854
:1016900049028B4214D1226813432360FEF712FFE4
:1016A0000600802223689202134200D06EE7FEF704
:1016B00009FFFA23801B9B009842F2D903204DE7D3
:1016C000A022D202934208D180232268DB02134376
:1016D000236022680A432260E0E722681640266001
:1016E00022680A400592059A714922680A402260E0
:1016F000002BD3D1FEF7E6FE06008022236892027B
:10170000134200D142E7FEF7DDFEFA23801B9B0067
:101710009842F2D9D2E72023EA689A43012A06D9EF
:10172000092A04D0CE215948490001F04EFE2B6908
:101730001F2B04D99E215548FF3101F046FE20227F
:10174000EB68134203D02168934311432160019A4F
:10175000042A03D00C2A24D1002F22D12268520758
:1017600002D5002B00D1F8E661682A6951481202BF
:1017700001400A430921626022688A4313432360BF
:10178000FFF7AAFEE368474A1B061B0FD35CD8404D
:10179000454B18600020FEF761FE002800D1F9E6F5
:1017A000DCE6002B19D00921226804278A43134361
:1017B0002360FEF787FE060023683B4207D062687D
:1017C0002B693C491B020A4013436360E2E6FEF7C3
:1017D00079FE801B0228EFD970E7012223680427D5
:1017E00093432360FEF76EFE060023683B4200D160
:1017F000D0E6FEF767FE801B0228F6D95EE7EB69AC
:10180000012B04D986212148890001F0DEFDEB6916
:10181000002B53D0802322685B0013432360FEF724
:1018200051FE80270600BF0023683B4227D02B6A69
:10183000FF2B04D98B211548890001F0C6FD6B6A86
:10184000144A15491A400B420BD0802109028A42E2
:1018500007D0C0221202934203D017490B4801F06F
:10186000B4FD63680E4A13406A6A1343636062689A
:101870002B6A12021B06120A13436360D1E6FEF7BD
:1018800021FE801B0228CFD918E7C046CB3A0008BA
:1018900000100240FFDFFFFFFF9FFFFF010200007B
:1018A000FF1FFFFFC93B00081C000020FFFFFEFFD9
:1018B000FFFFFBFFFFE0FFFF2D0200002368C04A8F
:1018C000802713402360FEF7FDFD0600BF0023685C
:1018D0003B4200D1A5E6FEF7F5FD801B0228F6D9B4
:1018E000ECE66B69012B03D9B649B74801F06DFDF1
:1018F0006A690123002A10D0226D02271343236551
:10190000FEF7E0FD0600236D3B4200D08DE6FEF7BA
:10191000D9FD801B0228F6D9D0E6226D02279A4312
:101920002265FEF7CFFD0600236D3B4200D17CE629
:10193000FEF7C8FD801B0228F6D9BFE6AB68A04AB7
:10194000134207D0A022D200934203D09F499E4861
:1019500001F03BFD80230021A26B5B0502911A423E
:1019600004D1A26B1343A363012302938027984EF3
:101970007F0033683B4208D08022AB68520093421C
:1019800013D1226D1343236534E033683B43336046
:10199000FEF798FD039033683B42EDD1FEF792FDD0
:1019A000039BC01A6428F6D988E6002B16D1236D54
:1019B000834A802713402365236D864ABF00134066
:1019C0002365FEF77FFD0600236D3B422AD0FEF71C
:1019D00079FD814B801B9842F6D96FE6A021C900A2
:1019E0008B420DD18023216DDB000B432365236DDA
:1019F0001A432265FEF766FD80270600BF000EE051
:101A0000236D6F4A13402365236D724A1340BAE772
:101A1000FEF758FD704B801B984200D94EE6236DAF
:101A20003B42F5D0029B012B00D002E6A36B6B4A30
:101A30001340A363FDE5AB69012B03D968496248F4
:101A400001F0C3FCA9690123664A002918D0A168E6
:101A500002271943A160616B0B4363638023116A02
:101A60009B010B431362FEF72DFD0600A3683B426A
:101A700000D0E2E5FEF726FD801B0228F6D91DE620
:101A8000A16802279943A160136A57490B4013626A
:101A9000FEF718FD0600A3683B4200D1CDE5FEF736
:101AA00011FD801B0228F6D908E6019A0C2A6AD09B
:101AB0004E4E022B55D14E4BEA6A1A4203D04D4985
:101AC000414801F082FC2A6B4B4B13400BD0802124
:101AD00049038B4207D080239B039A4203D0474996
:101AE000394801F072FC80216A6B454BC9031340F1
:101AF0008B4207D080231B049A4203D041493248CD
:101B000001F063FC23681E402660FEF7DBFC8026A4
:101B10000700B604236833421DD1296BEB6AE268E3
:101B20000B4339490A4013436A6B80251343E36032
:101B3000802322685B0413432360FEF7C3FC060086
:101B4000AD0423682B4200D083E5FEF7BBFC801B6D
:101B50000228F6D9B2E5FEF7B5FCC01B0228D9D998
:101B6000ACE5236880251E402660FEF7ABFC06002E
:101B7000AD0423682B4200D16BE5FEF7A3FC801B6C
:101B80000228F6D99AE51800012B00D1E6E480225C
:101B9000E368E96A52021A4001208A4200D0DDE47B
:101BA000F022296B92031A408A4200D0D6E4C0206A
:101BB00000040340686B181A431E9841C0B2CDE47C
:101BC000FFFEFFFF4B020000CB3A00087702000047
:101BD00000700040FFFBFFFF88130000FFFFFFEFD6
:101BE000BE02000000000140FFDFFFFFFFFFFFFE1D
:101BF000FFFFFEFFF1020000FFFFF3FFF202000013
:101C0000FFFF7FFFF3020000FFFF02FFF7B50400B4
:101C10000F00002801D10120FEBD03681B0703D17E
:101C20007C497D4801F0D1FB012F03D97B497A48DB
:101C300001F0CBFB01227A4D2B6813409F423AD82A
:101C400023689B0740D42368DB075FD401232A68FD
:101C50001A40974200D2BBE02368724D5B0700D563
:101C6000BEE023681B0718D523696F4A13420DD0C5
:101C7000A0216E4AC9001A408A4207D0C022D20071
:101C8000934203D06A49644801F09FFBEA682369E4
:101C90006849DB000A401343EB60FFF71DFCEB686B
:101CA000654A1B061B0FD35CD840644B18600020AC
:101CB000FEF7D4FBB0E72B6893433B432B602B68C4
:101CC00013409F42A7D1BBE7A3688022190091432C
:101CD00014D020221900914390290FD040221900DE
:101CE0009143A0290AD0102219009143C02905D0A0
:101CF000F02B03D05249484801F067FBF021494AD4
:101D0000D3688B43A1680B43D3609CE76368032BC4
:101D100003D94C49404801F058FB424E6268336891
:101D2000022A1CD19B0300D475E70321F3688B437F
:101D30001343F360FEF7C6FB63680190022B1BD1CF
:101D40000C22F3681340082B00D17FE7FEF7BAFBA3
:101D5000019BC01A3C4B9842F2D903205CE7032A4E
:101D600002D19B01E1D456E7012A02D15B07DCD402
:101D700051E79B05D9D44EE7032B0DD10C22F36814
:101D80001340934200D161E7FEF79CFB019BC01A10
:101D90002D4B9842F2D9E0E7012B13D00C22F368C7
:101DA000134200D152E7FEF78DFB019BC01A264B70
:101DB0009842F3D9D1E7FEF785FB019BC01A224B6D
:101DC0009842CAD80C22F3681340042BF3D13DE7A4
:101DD0002A689A432A602A681A4200D01BE73BE728
:101DE000E368114A13420DD0A021104AC9001A40DD
:101DF0008A4207D0C022D200934203D0134906483A
:101E000001F0E3FAEB68124A1340E2681343EB6017
:101E100027E7C04666030000CB3A000867030000CE
:101E20000020024000100240FFFBFFFFFFFDFFFF0C
:101E3000F1030000FFC7FFFFC93B00081C000020A2
:101E40007E0300008503000088130000EA03000001
:101E5000FFF8FFFF044B054ADB685B055B0FD35CB3
:101E6000034A1068D840704700100240D93B000870
:101E70001C000020044B054ADB689B045B0FD35C0D
:101E8000034A1068D840704700100240D93B000850
:101E90001C000020F7B5934B026804009A4203D956
:101EA0006721914801F091FA23689B064DD563683C
:101EB0008E4A13420DD098218D4A49031A408A4216
:101EC00007D08C229203934203D07321864801F0FD
:101ED0007CFA80230021874D5B05AA6B00911A4292
:101EE00004D1AA6B1343AB63012300938027824E76
:101EF0007F0033683B4200D1AFE0C022C021286898
:101F000063689203104089021A40904200D0B6E004
:101F10002A6D0A4000D0BDE06168C0230A009B0220
:101F20001A409A4207D12B6874480340C0208003AE
:101F300001400B432B602B6D1A43009B2A65012B3C
:101F400003D1AB6B6E4A1340AB632368DB070DD53F
:101F5000A368032B03D9DE21634801F036FA03217D
:101F6000644AD36C8B43A1680B43D36423689B07FB
:101F70000ED50C23E2689A4303D0E9215A4801F0B8
:101F800024FA0C215B4AD36C8B43E1680B43D36486
:101F900023685B070DD55B4D23692B4203D0F321EA
:101FA000514801F012FA534A2169D36C2B400B437C
:101FB000D36423681B0712D56369534A134207D0C1
:101FC00080229201934203D0FD21474801F0FDF9A0
:101FD000484A4E49D36C0B4061690B43D364236874
:101FE000DB0513D5A3694A4A134208D08022920226
:101FF000934204D084213C48490001F0E6F93D4A6F
:102000003A49D36C0B40A1690B43D36423685B0648
:102010000ED5404D236A2B4204D014213248FF31A3
:1020200001F0D3F9334A216AD36C2B400B43D364BC
:10203000236800201B0621D5374DE3692B4204D0CD
:102040001C212948FF3101F0C0F92A4AE169D36C0B
:1020500000202B400B43D36410E033683B433360D4
:10206000FEF730FA019033683B4200D045E7FEF7B7
:1020700029FA019BC01A6428F5D90320FEBD1A0075
:102080000A408A4200D043E72A680120920300D424
:102090003EE7F3E70B409A4200D13DE723689B06F9
:1020A00000D439E780232A6D286D1B0303432B6579
:1020B0002B6D0E491948114003402B652965D30546
:1020C00000D429E7FEF7FEF980270600BF002B6D3C
:1020D0003B4200D020E7FEF7F5F9114B801B9842F8
:1020E000F5D9CAE7FF010000033B0008FFFFFCFF32
:1020F000FFFFDFFF0010024000700040FFFFCFFF36
:10210000FFFFFFEFFFF3FFFFFFEFFFFFFFCFFFFF3B
:10211000FFFFFEFFFFFFFFFBFFFFF3FFFFFFF7FFE8
:1021200088130000036807491A680A401A609A6811
:102130002331FF318A439A6020238367002303669B
:102140007047C046DFFEFFFFF8B51300426F040082
:102150000220202A35D10138002932D0002B30D07E
:102160008022A5685201954204D12269002A01D13A
:10217000014226D12600703632780220012A20D072
:1021800022000125503235700027E164138053800E
:102190002122A06EE7676267B84213D00E4A8763B8
:1021A000C2620E4A02630E4A426322682832FEF778
:1021B00015FEB84206D010232800E367DB183770FD
:1021C0006367F8BD4022002023681A62996892185C
:1021D0000A4330709A60F4E795220008C72200088D
:1021E0001F230008F8B51300826F05000220202A83
:1021F00037D10138002934D0002B32D08022AC688E
:102200005201944204D12A69002A01D1014228D105
:102210002E00703632780220012A22D02A000124B2
:10222000583234700027696513802222E86EEF6708
:10223000AA67B84216D0144A8763C262134A02637F
:10224000134A42632A68243294460A006146FEF724
:10225000C5FDB84206D010232000EB67DB183770AD
:102260006B67F8BD802200202B685200196830701F
:102270000A431A60012299680A439A6040229968C9
:102280000A439A60EDE7C046D122000813230008F4
:102290001F2300082021036810B51B68826A0B40C9
:1022A0000CD1110052310B80802113689A688A4347
:1022B0009A60402219680A431A6010BD100001F0AC
:1022C00077F8FAE7704710B5806AFFF7FBFF10BD9B
:1022D0000368826A20201B6810B5034011D11100E9
:1022E0005A310B801368094C1968214019609968AC
:1022F0000334FF34A143996099683F34A143996046
:102300009067100001F05AF810BDC046FFFEFFFFB5
:10231000704710B5806AFFF7FBFF10BD704710B51E
:10232000846A2368626FA16F986800060BD5212A22
:1023300009D122000020523210801A68C030824336
:102340001A60202262679B685B0608D5222906D1A5
:10235000230000225A331A802000FFF7E3FE1023E7
:10236000E26F20001343E367FFF7D8FF10BD0000C2
:10237000F8B503680400DA6918689E6811070AD185
:1023800020210A4200D16AE0084268D0236E200072
:10239000002B5AD15AE0012135000D4003D190277E
:1023A0007F0038425BD00A4205D0C60503D51962CA
:1023B000E66F3143E16702210A4206D0002D04D0C6
:1023C0001962E66F49183143E16704210A4206D0D9
:1023D000002D04D01962E66F02393143E16711071D
:1023E00008D5810601D4002D04D008211962E36FBD
:1023F0001943E167E36F002B28D020231A4206D04F
:10240000184204D0236E002B01D020009847236887
:10241000E56F9B6820005B0602D408231D401AD09C
:10242000FFF780FE402123689A680A420FD09A681D
:10243000E06E8A439A60002809D01A4B8363FEF746
:102440001DFD002802D0E06E836B9847F8BD200088
:10245000FFF764FFFAE7FFF761FFE567F6E7802122
:1024600049030A4206D0750204D51962200000F023
:10247000D9FBEBE780210A4203D0084201D0636E0A
:1024800085E740210A42E1D00842DFD01A682000E7
:102490008A431A60202363670023636600F088FF85
:1024A000D4E7C046A9240008806A0023020010B5C2
:1024B0005A321380083A1380FFF730FF10BD000036
:1024C000F8B54268AF4B04009A4203D9AE49AF4811
:1024D00000F07BFF8022A3685205934206D0AC4AED
:1024E000134203D0AB49A94800F06FFFAA4D226800
:1024F000E368AA4EAA4260D1A94A134203D0A9496F
:10250000A24800F062FF2369A74A134207D0C02205
:10251000D200934203D0A5499C4800F056FF63695E
:102520000C221900914301D1002B03D1A0499748F7
:1025300000F04BFF9F4BA2691A4203D09E4993487B
:1025400000F043FF9D4BE2691A4203D09C498F483B
:1025500000F03BFF2769A26823683A43676918685F
:10256000E1693A43974F0A43384002431A605A6878
:10257000A0691640E26816435E60AB4201D0226A51
:1025800010439A68904E324002439A608F4A9342B9
:1025900020D103228E4BDB6C13408E4AD05C80230B
:1025A0001B02994200D1DEE0082833D8FDF7ACFDCC
:1025B0009BA2A532C0323232C300334204D0AD21D7
:1025C0007248090100F001FF834B226A1A429AD037
:1025D000824995E7824A934205D10C227C4BDB6C01
:1025E0001340804ADAE7804A934200D1AFE07F4A45
:1025F000934200D1ABE0AB4200D0A1E0C0218020EB
:10260000734A0901D36CC0000B40834238D003D811
:10261000002B0AD001250DE08020000183420ED05E
:102620008B42F7D1802000020DE0FFF713FC00255C
:10263000A84208D10023280023666366F8BD13680A
:10264000DB0620D54F48032263685A438242E1D813
:102650001A038242DED30027020E01025E088919A6
:102660007A41080011001A003B00FDF7EDFD604BB8
:10267000C218604B9A42CDD823683D00D860D9E794
:10268000FEF72AFFD3E75C48DDE7FFF7F3FB64E0E2
:1026900010254F4B61681A684808154006D0574B03
:1026A000C018FDF745FD002583B204E0544BC01867
:1026B000FDF73EFD83B21900524810398142A9D876
:1026C0000F2118001B0788435B0F21680343CB6071
:1026D000B0E7FEF701FF40E06368580880235B0223
:1026E0003EE00023E7E7FFF7B5FB63685B08C0182F
:1026F00061680BE0FFF7BEFBF7E71025344B61681C
:102700001A684808154006D01E4BC018FDF710FD8A
:10271000002583B204E0384BC018FDF709FD83B2F1
:10272000190038481039814200D973E72168CEE793
:10273000FEF7D2FED9E76368580880231B02D6E76C
:10274000802301251B029942CBD00023E8E7802398
:102750001B029942C7D1FFF77DFB636840005B080D
:10276000C01861689DE7082800D953E7FDF7D6FC3B
:10277000F3FF8DFF90FF52FFB1FF52FF52FF52FF58
:10278000B4FFC04600093D00C80A00004F3B0008E6
:10279000FFEFFFFFC90A000000480040FFCFFFFF26
:1027A000FFDFFFFFCC0A0000FFFBFFFFD40A0000A1
:1027B000D50A0000FFFCFFFFD60A0000FF7FFFFFE5
:1027C000D70A0000F369FFEFFFF4FFFF0038014074
:1027D000001002403E3B0008FFF7FFFFD10A000057
:1027E00000440040423B0008004C004000500040C4
:1027F00000FDFFFFFFFC0F000024F40000127A0030
:102800000048E801EFFF0000436A70B50400FF2BA9
:1028100003D95549554800F0D8FD636ADB070DD54B
:10282000534DA36A2B4203D05249504800F0CDFDCE
:102830002268A16A53682B400B435360636A9B076D
:102840000DD54D4DE36A2B4203D04C49474800F06B
:10285000BCFD2268E16A53682B400B435360636AF6
:102860005B070DD5464D236B2B4203D045493F48AE
:1028700000F0ABFD2268216B53682B400B43536083
:10288000636A1B070DD5404D636B2B4203D03F4954
:10289000364800F09AFD2268616B53682B400B4369
:1028A0005360636ADB060DD5394DA36B2B4203D011
:1028B00038492E4800F089FD2268A16B93682B40AF
:1028C0000B439360636A9B060DD5334DE36B2B423C
:1028D00003D03249254800F078FD2268E16B936807
:1028E0002B400B439360636A5B062AD523682C4A0E
:1028F000934206D02B4A934203D02B491B4800F049
:1029000064FD2A4D236C2B4203D02949174800F05F
:102910005CFD2168226C4B682B4013434B60802385
:102920005B039A420DD1234D636C2B4203D02249A5
:102930000E4800F04AFD2268616C53682B400B433F
:102940005360636A1B060DD51C4DA36C2B4203D04C
:102950001B49064800F039FD2268A16C53682B40E2
:102960000B43536070BDC0469A0B00004F3B0008FC
:10297000FFFFFDFF9F0B0000FFFFFEFFA60B000007
:10298000FFFFFBFFAD0B0000FF7FFFFFB40B00005C
:10299000FFEFFFFFBB0B0000FFDFFFFFC20B0000DC
:1029A0000038014000440040C90B0000FFFFEFFF6A
:1029B000CA0B0000FFFF9FFFCF0B0000FFFFF7FFD8
:1029C000D70B0000F8B504000E0015001F002268A8
:1029D000D36933409B1B59424B41AB4201D000208D
:1029E0001BE0069B0133F3D0FDF76CFD069BC01B7B
:1029F000834201D3002BEAD1236808491A680320D7
:102A00000A401A609A68A331FF318A439A602023F2
:102A10006367A367002370342370F8BD5FFEFFFF78
:102A2000F0B587B00593436F04000D001700022036
:102A3000202B49D10138002946D0002A44D08023D8
:102A4000A2685B019A4204D12369002B01D10142A3
:102A50003AD1230070331A780220012A34D001229F
:102A600000261A702123E6676367FDF72BFD23001C
:102A700050331F80023303931F808023A268049089
:102A80005B019A4204D12369B34201D12E001D009B
:102A9000230052331A88059B92B20093049B002AAC
:102AA0000AD140212000FFF78DFF00280BD1202301
:102AB00070346360207007E0002280212000FFF75F
:102AC00081FF002802D0032007B0F0BD2268002D4E
:102AD0000BD133880236DB05DB0D9362039B039A2F
:102AE0001B88013B9BB21380D2E72B7801359362A0
:102AF000F4E7000073B500260400C667FDF7E2FCAA
:102B0000236805001B681B0715D423681B685B0737
:102B10000AD580210E4B00220093C9032B00200010
:102B2000FFF750FF002811D1202300206367A3671F
:102B3000703420700BE08021054B32000093890334
:102B400003002000FFF73EFF0028DED0032076BD03
:102B5000FFFFFF0110B5041E01D1012010BD8169E6
:102B60000368294A00293ED0934210D0274A934255
:102B70000DD0274A93420AD0264A934207D0264ACC
:102B8000934204D03021FF31244800F01EFC636FD3
:102B9000002B05D1220070321370200000F0AEFC33
:102BA0002423012122686367136820008B4313608C
:102BB000FFF786FC0128D0D0636A002B02D02000EA
:102BC000FFF722FE236816495A6820000A402A218E
:102BD0005A609A688A439A60012219680A431A6007
:102BE000FFF788FFBAE79342D1D0084A9342CED08C
:102BF000074A9342CBD0074A9342C8D0064A934231
:102C0000C5D09A214900BFE7003801400044004088
:102C1000004C004000500040004800404F3B00087E
:102C2000FFB7FFFF70470000FA2373B59B000193C5
:102C3000154B0400984203D01449154800F0C5FB19
:102C4000E36800205B0613D576BD2B680B4202D0EB
:102C5000019B013B0193E368019E9B091340002EF9
:102C600000D11000019E002EEED0012BEDD1EBE73C
:102C70000123012280215B42E360E368054D9B094B
:102C800013404902EEE7C04600280040EB02000076
:102C9000883B000810E000E0214B70B504000D00F7
:102CA000984203D0DA211F4800F08FFB40232A68A6
:102CB0009A4303D0DB211B4800F087FB6B687F2B16
:102CC00003D9DC21174800F080FB174BAA689A4211
:102CD00003D9DD21134800F078FBCA236362773BF8
:102CE00063622000FFF7A0FF012816D04022A368EE
:102CF0000E4993432A6800201343A3602369AA68FE
:102D0000DB0BDB031343236122696B680A401B045E
:102D10001343236181235B42E360FF23636270BD41
:102D200000280040883B0008FF7F0000FFFF80FF75
:102D300010B59CB0382200210EA800F0FFFD14222F
:102D40000021684600F0FAFD2422002105A800F0C9
:102D5000F5FD1749174A0B6800241A4080231B0110
:102D600013430B6018230E93173B13931593A02363
:102D70000EA81B02179316941894FEF7E9FB0F2375
:102D80002100684600930194029403940494FEF792
:102D90003DFF2F230593802305A89B0207940894E9
:102DA00009940A940693FFF775F81CB010BDC0464D
:102DB00000700040FFE7FFFFF0B58FB000AFFDF7F8
:102DC00065FBFFF7B5FF102014223818002180188A
:102DD00000F0B4FD04228021FC4E0225F36AA020FD
:102DE0001343F362F36AC00513407B617B69F26AA7
:102DF00000240A43F2620122F36A0B40BB61BB6903
:102E0000F36A60391343F362F36A1340FB61FB69B1
:102E1000F36A2B43F362F36A2B403B623B6AFEF793
:102E2000D3F90122EA49EB48FEF7CEF99F21A02011
:102E300000220902C005FEF7C7F900222021E5485B
:102E4000FEF7C2F9802310229B017B621423BA187B
:102E5000D118E148BC62FC62FEF780F8C0231B0277
:102E60007B6210220323BA18BB621133D118DA48EF
:102E7000FC62FEF773F8032310227B62BA18BB6270
:102E80001133D118D548FC62FEF768F820231022D0
:102E9000A0207B621F3BBB625B19BA183B631133F6
:102EA000D118C005FC62FEF759F8C0231022A020FB
:102EB000BA187B62AC3BD118C005BC62FC62FEF75D
:102EC0004DF8C74B10227B62C64BBA18BB62142365
:102ED000C048D118FC62FEF741F8042310227B623F
:102EE0000D33BB62103BBA18FB621333D118B948DB
:102EF0003C63FEF733F8BC4B10227B620123BA1807
:102F0000BB621333D118B348FC623C63FEF726F86A
:102F100080231022A0205B007B62FF3BBA18BB62BB
:102F20001333D118C005FD623D63FEF717F89E23E9
:102F30001B027B6210220123A020BA18BB6213334C
:102F4000D118C005FC623C63FEF708F8220021009E
:102F50000520FDF719FE0520FDF750FE2200210097
:102F60000720FDF711FE0720FDF748FE0122336B15
:102F7000210013433363336B092013403B6122006C
:102F80003B69FDF701FE0920FDF738FE2200210014
:102F90000A20FDF7F9FD0A20FDF730FE220021008E
:102FA0000B20FDF7F1FD0B20FDF728FE1020142368
:102FB000381821000822C01800F0C0FC8B4D8C4B43
:102FC00028002B60C0231B066B6001232B61EB18CC
:102FD000DC77AB1CDC77C223FF336B622B002C3316
:102FE0001C700423EC63AC60AC63EC60AC626B619E
:102FF0002C63AC616C63EC61FDF790FA7D4B1022A1
:103000007B6280235B01BB621423BA18D1182800AD
:10301000FDF7EEFC784B10227B621423BA18D1180E
:103020002800FDF7E5FC754D754B28002B60E1236A
:10303000DB006B600123AC60EB602C616C61AC6108
:10304000EC612C62FEF710F921002800FEF7BCF9B4
:1030500021002800FEF7FEF96A4D6B4B28002B601B
:10306000E1235B026B600C23AC60EC602C616B6154
:10307000AC612C626C62FFF76DFD6448644B846048
:10308000036096239B0143600C23C4600461436189
:103090008461C46104624462FFF75CFD5D485E4B7D
:1030A0008460036096239B0143600C23C460046129
:1030B00043618461C46104624462FFF74BFD574A77
:1030C000574B13601300E12252025A600C22180081
:1030D0005A619C60DC601C619C61DC611C625C620A
:1030E000FFF738FD4F48504B8460036096239B01E7
:1030F00043600C23C460046143618461C461046261
:103100004462FFF727FD10201423381821000C22F9
:10311000C01800F013FC8023C021326DDB02134382
:103120003365424B89005A584148424C02405A503C
:1031300004221A607F230C32BB628033BA18FB6210
:10314000EB3BD1182000FFF7A7FD07228021A0202C
:10315000A36849019343033A1343A360033AC005AC
:10316000FEF732F88021A02001224900C005FEF7B9
:103170002BF8092230490A232800FFF751FC1522B9
:103180002E492800FEF7E0FF2D4B1B78DBB2012B08
:10319000FAD100222A49FB600A700023294C6422DC
:1031A000294928002360FFF71DF8254B1B78012BC8
:1031B00000D0C5E00023224A244913708C461A002F
:1031C000266821495118087842E0C04600100240A4
:1031D00004C000000004005000080050001C005013
:1031E000033000000000111020C00000E0040020A7
:1031F0000024014010000010000004484800002096
:1032000000540040DC000020004800402402002060
:1032100000380140180400200044004098030020BA
:10322000004C0040A40100200050004000E100E0FC
:10323000FFFF00FF00280040BF3B00080000002007
:103240003C00002044000020340300203C05002006
:10325000002805D06346985500230B70FB680136A3
:103260000132642AADD1002B00D026606420FDF726
:103270002FF92668022E90DD6B466A46BB60F31D6F
:10328000DB08DB00D31A9D464349684600F05EFB2D
:10329000B2B269464148FEF757FF00284DD1404B76
:1032A0001B78012BFBD100263D4B3E491E703E4B47
:1032B0003A481A68266092B2FEF794FF364A384BB5
:1032C0001B78012B52D1364B64201E70FDF700F99C
:1032D00000223148110084462368324E8819047850
:1032E000002C05D06246D45400220270FA680133E3
:1032F00001316429F2D12D4E002A00D033606B4693
:103300006A4634687B60E31DDB08DB00D31A9D4608
:103310002149684600F01AFBA2B269462800FEF770
:1033200013FF002834D13368002B31D01C4B1B789D
:10333000012BFBD100231A4A1370BB689D462CE772
:10334000642218492800FEF74DFF00231900124A95
:10335000981801701348C05C0D2803D1104B3A7BBC
:103360001A7022E70133642BF2D11EE7002399186B
:103370000E700C49C95C0A2906D1094B397B1970BA
:10338000074B397B19709AE70133642BEFD1F7E7CC
:103390007B689D46D1E7C0463C050020980300208D
:1033A0003C000020340300201800002044000020CE
:1033B0000122014B1A7070473C0000200122014B92
:1033C0001A7070473C000020704770470122094B7B
:1033D00010B5596B04200A435A638022996B520539
:1033E0000A439A6300221100FDF7CEFB0420FDF78B
:1033F00005FC10BD0010024030B5050087B0142256
:10340000002101A800F09AFA1F4B2A689A4238D18D
:1034100080221E4B9200596BA0200A4301215A635F
:10342000DA6AC0050A43DA62DB6A0B400093009B4C
:10343000102301A901930D3B0293FDF78FFD80221C
:10344000134C144B22619218626180221201236096
:10345000A2610023202220006360A360E360E26198
:103460002362FDF7F7FB002801D0FFF7ADFF002234
:103470000C20EC641100A562FDF786FB0C20FDF723
:10348000BDFB07B030BDC046002401400010024023
:10349000980400200800024010B5040086B01422F1
:1034A000002101A800F04AFA114B22689A421CD16F
:1034B0000221104C1048E26A0A43E262E36A0B40C0
:1034C0000093009BC0239B00019312230293113BA6
:1034D00003935B18049301A901330593FDF73EFDA7
:1034E0008023A26B9B031343A36306B010BDC046A9
:1034F00000540040001002400004005030B50500A8
:103500008BB01422002105A800F018FA2B688A4A13
:10351000934256D18022894BD202996B88480A4344
:103520009A630222D96A1143D962DB6A05A9134062
:103530000093009BC0231B010593032308930133D1
:1035400006920993FDF70AFD7E4C7F4B8022236093
:10355000052363600023A360E3606361A361E3610B
:10356000C02320009B0122612362FDF773FB00282A
:1035700001D0FFF729FF754BEC66A562744C8022E1
:103580002360052363600B33A3600023E360636162
:10359000A361E361C02320009B0122612362FDF748
:1035A00059FB002801D0FFF70FFF00221D20AC6659
:1035B0001100A562FDF7E8FA1D20FDF71FFB0BB017
:1035C00030BD644A93421DD180225C4BD201596BBD
:1035D0005B480A435A630222D96A1143D962DB6A03
:1035E00005A913400193019BC0230593BD3B06929F
:1035F0000893FDF7B3FC00221B201100FDF7C4FA6D
:103600001B20DAE7544A934221D180224B4B92028D
:10361000996BA0200A4301219A63DA6AC0050A4324
:10362000DA62DB6A0B400293029B0C2305930A3B90
:1036300006935B1808935B1805A90993FDF78EFCA8
:1036400000221C201100FDF79FFA1C20B5E7434A19
:10365000934253D18022394B1203996BA0200A4325
:1036600001219A63DA6AC0050A43DA62DB6A022240
:103670000B400393039B032305A905930893DB18D1
:1036800006920993FDF76AFC354C364B8022236085
:103690000C2363600023A360E3606361A361E361C3
:1036A000802320009B0122612362FDF7D3FA0028CA
:1036B00001D0FFF789FE2C4BEC66A5622B4C8022D3
:1036C00023600C2363600433A3600023E360636121
:1036D000A361E361802320009B0122612362FDF747
:1036E000B9FA002801D0FFF76FFEAC66A562002290
:1036F0000E201100FDF748FA0E205EE71C4A9342A7
:1037000000D05CE780220D4B5203996B0C480A43B2
:103710009A630222D96A1143D962DB6A05A9134070
:103720000493049B18230593153B089303330692D7
:103730000993FDF713FCDAE700480040001002404F
:1037400000040050EC020020300002401C00024047
:10375000A40200200038014000440040004C00401A
:103760005C0100206C0002408000024094000020B8
:10377000005000407047FEE77047704710B5FCF7F7
:1037800099FE10BD7047704710B50120FDF760FD30
:103790000220FDF75DFD10BD802010B54001FDF752
:1037A00057FD80208001FDF753FD10BD10B5024884
:1037B000FDF789FB10BDC0469804002010B50348F2
:1037C000FDF781FB0248FDF77EFB10BDA40200203F
:1037D000EC02002010B50348FDF775FB0248FDF729
:1037E00072FB10BD5C0100209400002010B502485F
:1037F000FDF768F810BDC046E004002010B503488E
:10380000FEF7B6FD0248FEF7B3FD10BD9803002099
:10381000A401002010B50248FEF7AAFD10BDC04665
:103820002402002010B50248FEF7A2FD10BDC046DC
:103830001804002010B50248FEF79AFD10BDC046DE
:10384000DC0000208022104B520019680A431A60E5
:10385000DA680E490A40DA601A680D490A40012107
:103860001A609A688A439A601A680A490A401A607C
:10387000DA6809490A40DA6000221A618022074B9F
:1038800012059A607047C046001002400C40FF8845
:10389000F6FFF6FEFFFFFBFFFFFF02FF00ED00E07B
:1038A0000D488546002103E00C4B5B584350043122
:1038B0000B480C4B42189A42F6D30B4A02E0002305
:1038C00013600432094B9A42F9D3FFF7BBFF00F0B3
:1038D00011F8FFF771FAFEE700500020FC3B0008EA
:1038E000000000202000002020000020A005002073
:1038F000FEE7000070B500260C4D0D4C641BA410B3
:10390000A64209D1002600F029F80A4D0A4C641B92
:10391000A410A64205D170BDB300EB5898470136FC
:10392000EEE7B300EB5898470136F2E7F43B0008A6
:10393000F43B0008F43B0008F83B00080300821841
:10394000934200D1704719700133F9E7031C0A78DC
:1039500001311A700133002AF9D17047F8B5C04619
:10396000F8BC08BC9E467047F8B5C046F8BC08BC19
:043970009E467047B8
:103974002E2E5C447269766572735C53544D3332F7
:103984004C3078785F48414C5F4472697665725C6C
:103994005372635C73746D33326C3078785F686132
:1039A4006C5F6164632E63002E2E5C4472697665DD
:1039B40072735C53544D33324C3078785F48414CC9
:1039C4005F4472697665725C5372635C73746D33C1
:1039D400326C3078785F68616C5F636F727465789D
:1039E4002E63002E2E5C447269766572735C5354A8
:1039F4004D33324C3078785F48414C5F447269767D
:103A040065725C5372635C73746D33326C307878B6
:103A14005F68616C5F646D612E63002E2E5C44727E
:103A240069766572735C53544D33324C3078785FE9
:103A340048414C5F4472697665725C5372635C738F
:103A4400746D33326C3078785F68616C5F6770696D
:103A54006F2E63002E2E5C447269766572735C531C
:103A6400544D33324C3078785F48414C5F4472692E
:103A74007665725C5372635C73746D33326C307848
:103A8400785F68616C5F6932632E63002E2E5C443C
:103A94007269766572735C53544D33324C30787866
:103AA4005F48414C5F4472697665725C5372635C33
:103AB40073746D33326C3078785F68616C5F69322F
:103AC400635F65782E63002E2E5C4472697665729E
:103AD400735C53544D33324C3078785F48414C5FBB
:103AE4004472697665725C5372635C73746D3332CD
:103AF4006C3078785F68616C5F7263632E63002E4C
:103B04002E5C447269766572735C53544D33324C47
:103B14003078785F48414C5F4472697665725C53D3
:103B240072635C73746D33326C3078785F68616C87
:103B34005F7263635F65782E6300010402080010FE
:103B440010100410101002101010082E2E5C447275
:103B540069766572735C53544D33324C3078785FB8
:103B640048414C5F4472697665725C5372635C735E
:103B7400746D33326C3078785F68616C5F75617234
:103B8400742E63002E2E5C447269766572735C53E6
:103B9400544D33324C3078785F48414C5F447269FD
:103BA4007665725C5372635C73746D33326C307817
:103BB400785F6C6C5F7274632E63000D0A5354411A
:103BC40052540D0A0000000000000000000102032E
:103BD40004060708090000000001020304030406A8
:083BE400080C1018203000004D
:083BEC009CC6FF7F01000000F0
:043BF400E9000008DC
:043BF800C100000800
:103BFC000A0D202A2A2A2A424C4520544553542A7D
:103C0C002A2A2A0A0D00000064000000000020008F
:04000005080038A116
:00000001FF
